{
  "_format": "hh-sol-artifact-1",
  "contractName": "warrantyToken",
  "sourceName": "contracts/warranty.sol",
  "abi": [
    {
      "inputs": [],
      "stateMutability": "nonpayable",
      "type": "constructor"
    },
    {
      "anonymous": false,
      "inputs": [
        {
          "indexed": true,
          "internalType": "address",
          "name": "owner",
          "type": "address"
        },
        {
          "indexed": true,
          "internalType": "address",
          "name": "approved",
          "type": "address"
        },
        {
          "indexed": true,
          "internalType": "uint256",
          "name": "tokenId",
          "type": "uint256"
        }
      ],
      "name": "Approval",
      "type": "event"
    },
    {
      "anonymous": false,
      "inputs": [
        {
          "indexed": true,
          "internalType": "address",
          "name": "owner",
          "type": "address"
        },
        {
          "indexed": true,
          "internalType": "address",
          "name": "operator",
          "type": "address"
        },
        {
          "indexed": false,
          "internalType": "bool",
          "name": "approved",
          "type": "bool"
        }
      ],
      "name": "ApprovalForAll",
      "type": "event"
    },
    {
      "anonymous": false,
      "inputs": [
        {
          "indexed": true,
          "internalType": "address",
          "name": "to",
          "type": "address"
        },
        {
          "indexed": true,
          "internalType": "uint256",
          "name": "tokenId",
          "type": "uint256"
        }
      ],
      "name": "Attest",
      "type": "event"
    },
    {
      "anonymous": false,
      "inputs": [
        {
          "indexed": true,
          "internalType": "address",
          "name": "previousOwner",
          "type": "address"
        },
        {
          "indexed": true,
          "internalType": "address",
          "name": "newOwner",
          "type": "address"
        }
      ],
      "name": "OwnershipTransferred",
      "type": "event"
    },
    {
      "anonymous": false,
      "inputs": [
        {
          "indexed": true,
          "internalType": "address",
          "name": "to",
          "type": "address"
        },
        {
          "indexed": true,
          "internalType": "uint256",
          "name": "tokenId",
          "type": "uint256"
        }
      ],
      "name": "Revoke",
      "type": "event"
    },
    {
      "anonymous": false,
      "inputs": [
        {
          "indexed": true,
          "internalType": "address",
          "name": "from",
          "type": "address"
        },
        {
          "indexed": true,
          "internalType": "address",
          "name": "to",
          "type": "address"
        },
        {
          "indexed": true,
          "internalType": "uint256",
          "name": "tokenId",
          "type": "uint256"
        }
      ],
      "name": "Transfer",
      "type": "event"
    },
    {
      "inputs": [
        {
          "internalType": "address",
          "name": "to",
          "type": "address"
        },
        {
          "internalType": "uint256",
          "name": "tokenId",
          "type": "uint256"
        }
      ],
      "name": "approve",
      "outputs": [],
      "stateMutability": "nonpayable",
      "type": "function"
    },
    {
      "inputs": [
        {
          "internalType": "address",
          "name": "owner",
          "type": "address"
        }
      ],
      "name": "balanceOf",
      "outputs": [
        {
          "internalType": "uint256",
          "name": "",
          "type": "uint256"
        }
      ],
      "stateMutability": "view",
      "type": "function"
    },
    {
      "inputs": [
        {
          "internalType": "uint256",
          "name": "tokenId",
          "type": "uint256"
        }
      ],
      "name": "burn",
      "outputs": [],
      "stateMutability": "nonpayable",
      "type": "function"
    },
    {
      "inputs": [
        {
          "internalType": "uint256",
          "name": "tokenId",
          "type": "uint256"
        }
      ],
      "name": "getApproved",
      "outputs": [
        {
          "internalType": "address",
          "name": "",
          "type": "address"
        }
      ],
      "stateMutability": "view",
      "type": "function"
    },
    {
      "inputs": [
        {
          "internalType": "address",
          "name": "owner",
          "type": "address"
        },
        {
          "internalType": "address",
          "name": "operator",
          "type": "address"
        }
      ],
      "name": "isApprovedForAll",
      "outputs": [
        {
          "internalType": "bool",
          "name": "",
          "type": "bool"
        }
      ],
      "stateMutability": "view",
      "type": "function"
    },
    {
      "inputs": [],
      "name": "name",
      "outputs": [
        {
          "internalType": "string",
          "name": "",
          "type": "string"
        }
      ],
      "stateMutability": "view",
      "type": "function"
    },
    {
      "inputs": [],
      "name": "owner",
      "outputs": [
        {
          "internalType": "address",
          "name": "",
          "type": "address"
        }
      ],
      "stateMutability": "view",
      "type": "function"
    },
    {
      "inputs": [
        {
          "internalType": "uint256",
          "name": "tokenId",
          "type": "uint256"
        }
      ],
      "name": "ownerOf",
      "outputs": [
        {
          "internalType": "address",
          "name": "",
          "type": "address"
        }
      ],
      "stateMutability": "view",
      "type": "function"
    },
    {
      "inputs": [
        {
          "internalType": "address",
          "name": "recipient",
          "type": "address"
        },
        {
          "internalType": "string",
          "name": "metadataURI",
          "type": "string"
        }
      ],
      "name": "payToMint",
      "outputs": [
        {
          "internalType": "uint256",
          "name": "",
          "type": "uint256"
        }
      ],
      "stateMutability": "payable",
      "type": "function"
    },
    {
      "inputs": [],
      "name": "renounceOwnership",
      "outputs": [],
      "stateMutability": "nonpayable",
      "type": "function"
    },
    {
      "inputs": [
        {
          "internalType": "uint256",
          "name": "tokenId",
          "type": "uint256"
        }
      ],
      "name": "revoke",
      "outputs": [],
      "stateMutability": "nonpayable",
      "type": "function"
    },
    {
      "inputs": [
        {
          "internalType": "address",
          "name": "to",
          "type": "address"
        },
        {
          "internalType": "string",
          "name": "uri",
          "type": "string"
        }
      ],
      "name": "safeMint",
      "outputs": [],
      "stateMutability": "nonpayable",
      "type": "function"
    },
    {
      "inputs": [
        {
          "internalType": "address",
          "name": "from",
          "type": "address"
        },
        {
          "internalType": "address",
          "name": "to",
          "type": "address"
        },
        {
          "internalType": "uint256",
          "name": "tokenId",
          "type": "uint256"
        }
      ],
      "name": "safeTransferFrom",
      "outputs": [],
      "stateMutability": "nonpayable",
      "type": "function"
    },
    {
      "inputs": [
        {
          "internalType": "address",
          "name": "from",
          "type": "address"
        },
        {
          "internalType": "address",
          "name": "to",
          "type": "address"
        },
        {
          "internalType": "uint256",
          "name": "tokenId",
          "type": "uint256"
        },
        {
          "internalType": "bytes",
          "name": "data",
          "type": "bytes"
        }
      ],
      "name": "safeTransferFrom",
      "outputs": [],
      "stateMutability": "nonpayable",
      "type": "function"
    },
    {
      "inputs": [
        {
          "internalType": "address",
          "name": "operator",
          "type": "address"
        },
        {
          "internalType": "bool",
          "name": "approved",
          "type": "bool"
        }
      ],
      "name": "setApprovalForAll",
      "outputs": [],
      "stateMutability": "nonpayable",
      "type": "function"
    },
    {
      "inputs": [
        {
          "internalType": "bytes4",
          "name": "interfaceId",
          "type": "bytes4"
        }
      ],
      "name": "supportsInterface",
      "outputs": [
        {
          "internalType": "bool",
          "name": "",
          "type": "bool"
        }
      ],
      "stateMutability": "view",
      "type": "function"
    },
    {
      "inputs": [],
      "name": "symbol",
      "outputs": [
        {
          "internalType": "string",
          "name": "",
          "type": "string"
        }
      ],
      "stateMutability": "view",
      "type": "function"
    },
    {
      "inputs": [
        {
          "internalType": "uint256",
          "name": "tokenId",
          "type": "uint256"
        }
      ],
      "name": "tokenURI",
      "outputs": [
        {
          "internalType": "string",
          "name": "",
          "type": "string"
        }
      ],
      "stateMutability": "view",
      "type": "function"
    },
    {
      "inputs": [
        {
          "internalType": "address",
          "name": "from",
          "type": "address"
        },
        {
          "internalType": "address",
          "name": "to",
          "type": "address"
        },
        {
          "internalType": "uint256",
          "name": "tokenId",
          "type": "uint256"
        }
      ],
      "name": "transferFrom",
      "outputs": [],
      "stateMutability": "nonpayable",
      "type": "function"
    },
    {
      "inputs": [
        {
          "internalType": "address",
          "name": "newOwner",
          "type": "address"
        }
      ],
      "name": "transferOwnership",
      "outputs": [],
      "stateMutability": "nonpayable",
      "type": "function"
    }
  ],
  "bytecode": "0x60806040523480156200001157600080fd5b506040518060400160405280600d81526020017f77617272616e7479546f6b656e000000000000000000000000000000000000008152506040518060400160405280600381526020017f57544b0000000000000000000000000000000000000000000000000000000000815250816000908051906020019062000096929190620001a6565b508060019080519060200190620000af929190620001a6565b505050620000d2620000c6620000d860201b60201c565b620000e060201b60201c565b620002bb565b600033905090565b6000600760009054906101000a900473ffffffffffffffffffffffffffffffffffffffff16905081600760006101000a81548173ffffffffffffffffffffffffffffffffffffffff021916908373ffffffffffffffffffffffffffffffffffffffff1602179055508173ffffffffffffffffffffffffffffffffffffffff168173ffffffffffffffffffffffffffffffffffffffff167f8be0079c531659141344cd1fd0a4f28419497f9722a3daafe3b4186f6b6457e060405160405180910390a35050565b828054620001b49062000285565b90600052602060002090601f016020900481019282620001d8576000855562000224565b82601f10620001f357805160ff191683800117855562000224565b8280016001018555821562000224579182015b828111156200022357825182559160200191906001019062000206565b5b50905062000233919062000237565b5090565b5b808211156200025257600081600090555060010162000238565b5090565b7f4e487b7100000000000000000000000000000000000000000000000000000000600052602260045260246000fd5b600060028204905060018216806200029e57607f821691505b60208210811415620002b557620002b462000256565b5b50919050565b61353880620002cb6000396000f3fe60806040526004361061011f5760003560e01c806370a08231116100a0578063b88d4fde11610064578063b88d4fde146103d6578063c87b56dd146103ff578063d204c45e1461043c578063e985e9c514610465578063f2fde38b146104a25761011f565b806370a0823114610303578063715018a6146103405780638da5cb5b1461035757806395d89b4114610382578063a22cb465146103ad5761011f565b806323b872dd116100e757806323b872dd1461021b57806342842e0e1461024457806342966c681461026d578063615fd9e2146102965780636352211e146102c65761011f565b806301ffc9a71461012457806306fdde0314610161578063081812fc1461018c578063095ea7b3146101c957806320c5429b146101f2575b600080fd5b34801561013057600080fd5b5061014b6004803603810190610146919061221d565b6104cb565b6040516101589190612265565b60405180910390f35b34801561016d57600080fd5b506101766105ad565b6040516101839190612319565b60405180910390f35b34801561019857600080fd5b506101b360048036038101906101ae9190612371565b61063f565b6040516101c091906123df565b60405180910390f35b3480156101d557600080fd5b506101f060048036038101906101eb9190612426565b610685565b005b3480156101fe57600080fd5b5061021960048036038101906102149190612371565b61079d565b005b34801561022757600080fd5b50610242600480360381019061023d9190612466565b6107b1565b005b34801561025057600080fd5b5061026b60048036038101906102669190612466565b610811565b005b34801561027957600080fd5b50610294600480360381019061028f9190612371565b610831565b005b6102b060048036038101906102ab91906125ee565b6108b3565b6040516102bd9190612659565b60405180910390f35b3480156102d257600080fd5b506102ed60048036038101906102e89190612371565b6109d9565b6040516102fa91906123df565b60405180910390f35b34801561030f57600080fd5b5061032a60048036038101906103259190612674565b610a8b565b6040516103379190612659565b60405180910390f35b34801561034c57600080fd5b50610355610b43565b005b34801561036357600080fd5b5061036c610b57565b60405161037991906123df565b60405180910390f35b34801561038e57600080fd5b50610397610b81565b6040516103a49190612319565b60405180910390f35b3480156103b957600080fd5b506103d460048036038101906103cf91906126cd565b610c13565b005b3480156103e257600080fd5b506103fd60048036038101906103f891906127ae565b610c29565b005b34801561040b57600080fd5b5061042660048036038101906104219190612371565b610c8b565b6040516104339190612319565b60405180910390f35b34801561044857600080fd5b50610463600480360381019061045e91906125ee565b610c9d565b005b34801561047157600080fd5b5061048c60048036038101906104879190612831565b610d0e565b6040516104999190612265565b60405180910390f35b3480156104ae57600080fd5b506104c960048036038101906104c49190612674565b610da2565b005b60007f80ac58cd000000000000000000000000000000000000000000000000000000007bffffffffffffffffffffffffffffffffffffffffffffffffffffffff1916827bffffffffffffffffffffffffffffffffffffffffffffffffffffffff1916148061059657507f5b5e139f000000000000000000000000000000000000000000000000000000007bffffffffffffffffffffffffffffffffffffffffffffffffffffffff1916827bffffffffffffffffffffffffffffffffffffffffffffffffffffffff1916145b806105a657506105a582610e26565b5b9050919050565b6060600080546105bc906128a0565b80601f01602080910402602001604051908101604052809291908181526020018280546105e8906128a0565b80156106355780601f1061060a57610100808354040283529160200191610635565b820191906000526020600020905b81548152906001019060200180831161061857829003601f168201915b5050505050905090565b600061064a82610e90565b6004600083815260200190815260200160002060009054906101000a900473ffffffffffffffffffffffffffffffffffffffff169050919050565b6000610690826109d9565b90508073ffffffffffffffffffffffffffffffffffffffff168373ffffffffffffffffffffffffffffffffffffffff161415610701576040517f08c379a00000000000000000000000000000000000000000000000000000000081526004016106f890612944565b60405180910390fd5b8073ffffffffffffffffffffffffffffffffffffffff16610720610edb565b73ffffffffffffffffffffffffffffffffffffffff16148061074f575061074e81610749610edb565b610d0e565b5b61078e576040517f08c379a0000000000000000000000000000000000000000000000000000000008152600401610785906129d6565b60405180910390fd5b6107988383610ee3565b505050565b6107a5610f9c565b6107ae8161101a565b50565b6107c26107bc610edb565b82611026565b610801576040517f08c379a00000000000000000000000000000000000000000000000000000000081526004016107f890612a68565b60405180910390fd5b61080c8383836110bb565b505050565b61082c83838360405180602001604052806000815250610c29565b505050565b3373ffffffffffffffffffffffffffffffffffffffff16610851826109d9565b73ffffffffffffffffffffffffffffffffffffffff16146108a7576040517f08c379a000000000000000000000000000000000000000000000000000000000815260040161089e90612afa565b60405180910390fd5b6108b08161101a565b50565b600060016009836040516108c79190612b56565b908152602001604051809103902060009054906101000a900460ff1660ff161415610927576040517f08c379a000000000000000000000000000000000000000000000000000000000815260040161091e90612bb9565b60405180910390fd5b600034101561096b576040517f08c379a000000000000000000000000000000000000000000000000000000000815260040161096290612c25565b60405180910390fd5b60006109776008611322565b90506109836008611330565b60016009846040516109959190612b56565b908152602001604051809103902060006101000a81548160ff021916908360ff1602179055506109c58482611346565b6109cf8184611520565b8091505092915050565b6000806002600084815260200190815260200160002060009054906101000a900473ffffffffffffffffffffffffffffffffffffffff169050600073ffffffffffffffffffffffffffffffffffffffff168173ffffffffffffffffffffffffffffffffffffffff161415610a82576040517f08c379a0000000000000000000000000000000000000000000000000000000008152600401610a7990612c91565b60405180910390fd5b80915050919050565b60008073ffffffffffffffffffffffffffffffffffffffff168273ffffffffffffffffffffffffffffffffffffffff161415610afc576040517f08c379a0000000000000000000000000000000000000000000000000000000008152600401610af390612d23565b60405180910390fd5b600360008373ffffffffffffffffffffffffffffffffffffffff1673ffffffffffffffffffffffffffffffffffffffff168152602001908152602001600020549050919050565b610b4b610f9c565b610b556000611594565b565b6000600760009054906101000a900473ffffffffffffffffffffffffffffffffffffffff16905090565b606060018054610b90906128a0565b80601f0160208091040260200160405190810160405280929190818152602001828054610bbc906128a0565b8015610c095780601f10610bde57610100808354040283529160200191610c09565b820191906000526020600020905b815481529060010190602001808311610bec57829003601f168201915b5050505050905090565b610c25610c1e610edb565b838361165a565b5050565b610c3a610c34610edb565b83611026565b610c79576040517f08c379a0000000000000000000000000000000000000000000000000000000008152600401610c7090612a68565b60405180910390fd5b610c85848484846117c7565b50505050565b6060610c9682611823565b9050919050565b610ca5610f9c565b6000610cb16008611322565b9050610cbd6008611330565b610cc78382611936565b610cd18183611520565b6001600983604051610ce39190612b56565b908152602001604051809103902060006101000a81548160ff021916908360ff160217905550505050565b6000600560008473ffffffffffffffffffffffffffffffffffffffff1673ffffffffffffffffffffffffffffffffffffffff16815260200190815260200160002060008373ffffffffffffffffffffffffffffffffffffffff1673ffffffffffffffffffffffffffffffffffffffff16815260200190815260200160002060009054906101000a900460ff16905092915050565b610daa610f9c565b600073ffffffffffffffffffffffffffffffffffffffff168173ffffffffffffffffffffffffffffffffffffffff161415610e1a576040517f08c379a0000000000000000000000000000000000000000000000000000000008152600401610e1190612db5565b60405180910390fd5b610e2381611594565b50565b60007f01ffc9a7000000000000000000000000000000000000000000000000000000007bffffffffffffffffffffffffffffffffffffffffffffffffffffffff1916827bffffffffffffffffffffffffffffffffffffffffffffffffffffffff1916149050919050565b610e9981611954565b610ed8576040517f08c379a0000000000000000000000000000000000000000000000000000000008152600401610ecf90612c91565b60405180910390fd5b50565b600033905090565b816004600083815260200190815260200160002060006101000a81548173ffffffffffffffffffffffffffffffffffffffff021916908373ffffffffffffffffffffffffffffffffffffffff160217905550808273ffffffffffffffffffffffffffffffffffffffff16610f56836109d9565b73ffffffffffffffffffffffffffffffffffffffff167f8c5be1e5ebec7d5bd14f71427d1e84f3dd0314c0f7b2291e5b200ac8c7c3b92560405160405180910390a45050565b610fa4610edb565b73ffffffffffffffffffffffffffffffffffffffff16610fc2610b57565b73ffffffffffffffffffffffffffffffffffffffff1614611018576040517f08c379a000000000000000000000000000000000000000000000000000000000815260040161100f90612e21565b60405180910390fd5b565b611023816119c0565b50565b600080611032836109d9565b90508073ffffffffffffffffffffffffffffffffffffffff168473ffffffffffffffffffffffffffffffffffffffff16148061107457506110738185610d0e565b5b806110b257508373ffffffffffffffffffffffffffffffffffffffff1661109a8461063f565b73ffffffffffffffffffffffffffffffffffffffff16145b91505092915050565b8273ffffffffffffffffffffffffffffffffffffffff166110db826109d9565b73ffffffffffffffffffffffffffffffffffffffff1614611131576040517f08c379a000000000000000000000000000000000000000000000000000000000815260040161112890612eb3565b60405180910390fd5b600073ffffffffffffffffffffffffffffffffffffffff168273ffffffffffffffffffffffffffffffffffffffff1614156111a1576040517f08c379a000000000000000000000000000000000000000000000000000000000815260040161119890612f45565b60405180910390fd5b6111ac838383611a13565b6111b7600082610ee3565b6001600360008573ffffffffffffffffffffffffffffffffffffffff1673ffffffffffffffffffffffffffffffffffffffff16815260200190815260200160002060008282546112079190612f94565b925050819055506001600360008473ffffffffffffffffffffffffffffffffffffffff1673ffffffffffffffffffffffffffffffffffffffff168152602001908152602001600020600082825461125e9190612fc8565b92505081905550816002600083815260200190815260200160002060006101000a81548173ffffffffffffffffffffffffffffffffffffffff021916908373ffffffffffffffffffffffffffffffffffffffff160217905550808273ffffffffffffffffffffffffffffffffffffffff168473ffffffffffffffffffffffffffffffffffffffff167fddf252ad1be2c89b69c2b068fc378daa952ba7f163c4a11628f55a4df523b3ef60405160405180910390a461131d838383611abe565b505050565b600081600001549050919050565b6001816000016000828254019250508190555050565b600073ffffffffffffffffffffffffffffffffffffffff168273ffffffffffffffffffffffffffffffffffffffff1614156113b6576040517f08c379a00000000000000000000000000000000000000000000000000000000081526004016113ad9061306a565b60405180910390fd5b6113bf81611954565b156113ff576040517f08c379a00000000000000000000000000000000000000000000000000000000081526004016113f6906130d6565b60405180910390fd5b61140b60008383611a13565b6001600360008473ffffffffffffffffffffffffffffffffffffffff1673ffffffffffffffffffffffffffffffffffffffff168152602001908152602001600020600082825461145b9190612fc8565b92505081905550816002600083815260200190815260200160002060006101000a81548173ffffffffffffffffffffffffffffffffffffffff021916908373ffffffffffffffffffffffffffffffffffffffff160217905550808273ffffffffffffffffffffffffffffffffffffffff16600073ffffffffffffffffffffffffffffffffffffffff167fddf252ad1be2c89b69c2b068fc378daa952ba7f163c4a11628f55a4df523b3ef60405160405180910390a461151c60008383611abe565b5050565b61152982611954565b611568576040517f08c379a000000000000000000000000000000000000000000000000000000000815260040161155f90613168565b60405180910390fd5b8060066000848152602001908152602001600020908051906020019061158f9291906120ce565b505050565b6000600760009054906101000a900473ffffffffffffffffffffffffffffffffffffffff16905081600760006101000a81548173ffffffffffffffffffffffffffffffffffffffff021916908373ffffffffffffffffffffffffffffffffffffffff1602179055508173ffffffffffffffffffffffffffffffffffffffff168173ffffffffffffffffffffffffffffffffffffffff167f8be0079c531659141344cd1fd0a4f28419497f9722a3daafe3b4186f6b6457e060405160405180910390a35050565b8173ffffffffffffffffffffffffffffffffffffffff168373ffffffffffffffffffffffffffffffffffffffff1614156116c9576040517f08c379a00000000000000000000000000000000000000000000000000000000081526004016116c0906131d4565b60405180910390fd5b80600560008573ffffffffffffffffffffffffffffffffffffffff1673ffffffffffffffffffffffffffffffffffffffff16815260200190815260200160002060008473ffffffffffffffffffffffffffffffffffffffff1673ffffffffffffffffffffffffffffffffffffffff16815260200190815260200160002060006101000a81548160ff0219169083151502179055508173ffffffffffffffffffffffffffffffffffffffff168373ffffffffffffffffffffffffffffffffffffffff167f17307eab39ab6107e8899845ad3d59bd9653f200f220920489ca2b5937696c31836040516117ba9190612265565b60405180910390a3505050565b6117d28484846110bb565b6117de84848484611bbc565b61181d576040517f08c379a000000000000000000000000000000000000000000000000000000000815260040161181490613266565b60405180910390fd5b50505050565b606061182e82610e90565b600060066000848152602001908152602001600020805461184e906128a0565b80601f016020809104026020016040519081016040528092919081815260200182805461187a906128a0565b80156118c75780601f1061189c576101008083540402835291602001916118c7565b820191906000526020600020905b8154815290600101906020018083116118aa57829003601f168201915b5050505050905060006118d8611d53565b90506000815114156118ee578192505050611931565b60008251111561192357808260405160200161190b929190613286565b60405160208183030381529060405292505050611931565b61192c84611d6a565b925050505b919050565b611950828260405180602001604052806000815250611dd2565b5050565b60008073ffffffffffffffffffffffffffffffffffffffff166002600084815260200190815260200160002060009054906101000a900473ffffffffffffffffffffffffffffffffffffffff1673ffffffffffffffffffffffffffffffffffffffff1614159050919050565b6119c981611e2d565b60006006600083815260200190815260200160002080546119e9906128a0565b905014611a1057600660008281526020019081526020016000206000611a0f9190612154565b5b50565b600073ffffffffffffffffffffffffffffffffffffffff168373ffffffffffffffffffffffffffffffffffffffff161480611a7a5750600073ffffffffffffffffffffffffffffffffffffffff168273ffffffffffffffffffffffffffffffffffffffff16145b611ab9576040517f08c379a0000000000000000000000000000000000000000000000000000000008152600401611ab0906132f6565b60405180910390fd5b505050565b600073ffffffffffffffffffffffffffffffffffffffff168373ffffffffffffffffffffffffffffffffffffffff161415611b3c57808273ffffffffffffffffffffffffffffffffffffffff167fe9274a84b19e9428826de6bae8c48329354f8f0e73f771b97cae2d9dccd45a2760405160405180910390a3611bb7565b600073ffffffffffffffffffffffffffffffffffffffff168273ffffffffffffffffffffffffffffffffffffffff161415611bb657808273ffffffffffffffffffffffffffffffffffffffff167fec9ab91322523c899ede7830ec9bfc992b5981cdcc27b91162fb23de5791117b60405160405180910390a35b5b505050565b6000611bdd8473ffffffffffffffffffffffffffffffffffffffff16611f4a565b15611d46578373ffffffffffffffffffffffffffffffffffffffff1663150b7a02611c06610edb565b8786866040518563ffffffff1660e01b8152600401611c28949392919061336b565b602060405180830381600087803b158015611c4257600080fd5b505af1925050508015611c7357506040513d601f19601f82011682018060405250810190611c7091906133cc565b60015b611cf6573d8060008114611ca3576040519150601f19603f3d011682016040523d82523d6000602084013e611ca8565b606091505b50600081511415611cee576040517f08c379a0000000000000000000000000000000000000000000000000000000008152600401611ce590613266565b60405180910390fd5b805181602001fd5b63150b7a0260e01b7bffffffffffffffffffffffffffffffffffffffffffffffffffffffff1916817bffffffffffffffffffffffffffffffffffffffffffffffffffffffff191614915050611d4b565b600190505b949350505050565b606060405180602001604052806000815250905090565b6060611d7582610e90565b6000611d7f611d53565b90506000815111611d9f5760405180602001604052806000815250611dca565b80611da984611f6d565b604051602001611dba929190613286565b6040516020818303038152906040525b915050919050565b611ddc8383611346565b611de96000848484611bbc565b611e28576040517f08c379a0000000000000000000000000000000000000000000000000000000008152600401611e1f90613266565b60405180910390fd5b505050565b6000611e38826109d9565b9050611e4681600084611a13565b611e51600083610ee3565b6001600360008373ffffffffffffffffffffffffffffffffffffffff1673ffffffffffffffffffffffffffffffffffffffff1681526020019081526020016000206000828254611ea19190612f94565b925050819055506002600083815260200190815260200160002060006101000a81549073ffffffffffffffffffffffffffffffffffffffff021916905581600073ffffffffffffffffffffffffffffffffffffffff168273ffffffffffffffffffffffffffffffffffffffff167fddf252ad1be2c89b69c2b068fc378daa952ba7f163c4a11628f55a4df523b3ef60405160405180910390a4611f4681600084611abe565b5050565b6000808273ffffffffffffffffffffffffffffffffffffffff163b119050919050565b60606000821415611fb5576040518060400160405280600181526020017f300000000000000000000000000000000000000000000000000000000000000081525090506120c9565b600082905060005b60008214611fe7578080611fd0906133f9565b915050600a82611fe09190613471565b9150611fbd565b60008167ffffffffffffffff811115612003576120026124c3565b5b6040519080825280601f01601f1916602001820160405280156120355781602001600182028036833780820191505090505b5090505b600085146120c25760018261204e9190612f94565b9150600a8561205d91906134a2565b60306120699190612fc8565b60f81b81838151811061207f5761207e6134d3565b5b60200101907effffffffffffffffffffffffffffffffffffffffffffffffffffffffffffff1916908160001a905350600a856120bb9190613471565b9450612039565b8093505050505b919050565b8280546120da906128a0565b90600052602060002090601f0160209004810192826120fc5760008555612143565b82601f1061211557805160ff1916838001178555612143565b82800160010185558215612143579182015b82811115612142578251825591602001919060010190612127565b5b5090506121509190612194565b5090565b508054612160906128a0565b6000825580601f106121725750612191565b601f0160209004906000526020600020908101906121909190612194565b5b50565b5b808211156121ad576000816000905550600101612195565b5090565b6000604051905090565b600080fd5b600080fd5b60007fffffffff0000000000000000000000000000000000000000000000000000000082169050919050565b6121fa816121c5565b811461220557600080fd5b50565b600081359050612217816121f1565b92915050565b600060208284031215612233576122326121bb565b5b600061224184828501612208565b91505092915050565b60008115159050919050565b61225f8161224a565b82525050565b600060208201905061227a6000830184612256565b92915050565b600081519050919050565b600082825260208201905092915050565b60005b838110156122ba57808201518184015260208101905061229f565b838111156122c9576000848401525b50505050565b6000601f19601f8301169050919050565b60006122eb82612280565b6122f5818561228b565b935061230581856020860161229c565b61230e816122cf565b840191505092915050565b6000602082019050818103600083015261233381846122e0565b905092915050565b6000819050919050565b61234e8161233b565b811461235957600080fd5b50565b60008135905061236b81612345565b92915050565b600060208284031215612387576123866121bb565b5b60006123958482850161235c565b91505092915050565b600073ffffffffffffffffffffffffffffffffffffffff82169050919050565b60006123c98261239e565b9050919050565b6123d9816123be565b82525050565b60006020820190506123f460008301846123d0565b92915050565b612403816123be565b811461240e57600080fd5b50565b600081359050612420816123fa565b92915050565b6000806040838503121561243d5761243c6121bb565b5b600061244b85828601612411565b925050602061245c8582860161235c565b9150509250929050565b60008060006060848603121561247f5761247e6121bb565b5b600061248d86828701612411565b935050602061249e86828701612411565b92505060406124af8682870161235c565b9150509250925092565b600080fd5b600080fd5b7f4e487b7100000000000000000000000000000000000000000000000000000000600052604160045260246000fd5b6124fb826122cf565b810181811067ffffffffffffffff8211171561251a576125196124c3565b5b80604052505050565b600061252d6121b1565b905061253982826124f2565b919050565b600067ffffffffffffffff821115612559576125586124c3565b5b612562826122cf565b9050602081019050919050565b82818337600083830152505050565b600061259161258c8461253e565b612523565b9050828152602081018484840111156125ad576125ac6124be565b5b6125b884828561256f565b509392505050565b600082601f8301126125d5576125d46124b9565b5b81356125e584826020860161257e565b91505092915050565b60008060408385031215612605576126046121bb565b5b600061261385828601612411565b925050602083013567ffffffffffffffff811115612634576126336121c0565b5b612640858286016125c0565b9150509250929050565b6126538161233b565b82525050565b600060208201905061266e600083018461264a565b92915050565b60006020828403121561268a576126896121bb565b5b600061269884828501612411565b91505092915050565b6126aa8161224a565b81146126b557600080fd5b50565b6000813590506126c7816126a1565b92915050565b600080604083850312156126e4576126e36121bb565b5b60006126f285828601612411565b9250506020612703858286016126b8565b9150509250929050565b600067ffffffffffffffff821115612728576127276124c3565b5b612731826122cf565b9050602081019050919050565b600061275161274c8461270d565b612523565b90508281526020810184848401111561276d5761276c6124be565b5b61277884828561256f565b509392505050565b600082601f830112612795576127946124b9565b5b81356127a584826020860161273e565b91505092915050565b600080600080608085870312156127c8576127c76121bb565b5b60006127d687828801612411565b94505060206127e787828801612411565b93505060406127f88782880161235c565b925050606085013567ffffffffffffffff811115612819576128186121c0565b5b61282587828801612780565b91505092959194509250565b60008060408385031215612848576128476121bb565b5b600061285685828601612411565b925050602061286785828601612411565b9150509250929050565b7f4e487b7100000000000000000000000000000000000000000000000000000000600052602260045260246000fd5b600060028204905060018216806128b857607f821691505b602082108114156128cc576128cb612871565b5b50919050565b7f4552433732313a20617070726f76616c20746f2063757272656e74206f776e6560008201527f7200000000000000000000000000000000000000000000000000000000000000602082015250565b600061292e60218361228b565b9150612939826128d2565b604082019050919050565b6000602082019050818103600083015261295d81612921565b9050919050565b7f4552433732313a20617070726f76652063616c6c6572206973206e6f7420746f60008201527f6b656e206f776e6572206e6f7220617070726f76656420666f7220616c6c0000602082015250565b60006129c0603e8361228b565b91506129cb82612964565b604082019050919050565b600060208201905081810360008301526129ef816129b3565b9050919050565b7f4552433732313a2063616c6c6572206973206e6f7420746f6b656e206f776e6560008201527f72206e6f7220617070726f766564000000000000000000000000000000000000602082015250565b6000612a52602e8361228b565b9150612a5d826129f6565b604082019050919050565b60006020820190508181036000830152612a8181612a45565b9050919050565b7f4f6e6c79206f776e6572206f662074686520746f6b656e2063616e206275726e60008201527f2069740000000000000000000000000000000000000000000000000000000000602082015250565b6000612ae460238361228b565b9150612aef82612a88565b604082019050919050565b60006020820190508181036000830152612b1381612ad7565b9050919050565b600081905092915050565b6000612b3082612280565b612b3a8185612b1a565b9350612b4a81856020860161229c565b80840191505092915050565b6000612b628284612b25565b915081905092915050565b7f4e465420616c7265616479206d696e7465642100000000000000000000000000600082015250565b6000612ba360138361228b565b9150612bae82612b6d565b602082019050919050565b60006020820190508181036000830152612bd281612b96565b9050919050565b7f4e65656420746f20706179207570210000000000000000000000000000000000600082015250565b6000612c0f600f8361228b565b9150612c1a82612bd9565b602082019050919050565b60006020820190508181036000830152612c3e81612c02565b9050919050565b7f4552433732313a20696e76616c696420746f6b656e2049440000000000000000600082015250565b6000612c7b60188361228b565b9150612c8682612c45565b602082019050919050565b60006020820190508181036000830152612caa81612c6e565b9050919050565b7f4552433732313a2061646472657373207a65726f206973206e6f74206120766160008201527f6c6964206f776e65720000000000000000000000000000000000000000000000602082015250565b6000612d0d60298361228b565b9150612d1882612cb1565b604082019050919050565b60006020820190508181036000830152612d3c81612d00565b9050919050565b7f4f776e61626c653a206e6577206f776e657220697320746865207a65726f206160008201527f6464726573730000000000000000000000000000000000000000000000000000602082015250565b6000612d9f60268361228b565b9150612daa82612d43565b604082019050919050565b60006020820190508181036000830152612dce81612d92565b9050919050565b7f4f776e61626c653a2063616c6c6572206973206e6f7420746865206f776e6572600082015250565b6000612e0b60208361228b565b9150612e1682612dd5565b602082019050919050565b60006020820190508181036000830152612e3a81612dfe565b9050919050565b7f4552433732313a207472616e736665722066726f6d20696e636f72726563742060008201527f6f776e6572000000000000000000000000000000000000000000000000000000602082015250565b6000612e9d60258361228b565b9150612ea882612e41565b604082019050919050565b60006020820190508181036000830152612ecc81612e90565b9050919050565b7f4552433732313a207472616e7366657220746f20746865207a65726f2061646460008201527f7265737300000000000000000000000000000000000000000000000000000000602082015250565b6000612f2f60248361228b565b9150612f3a82612ed3565b604082019050919050565b60006020820190508181036000830152612f5e81612f22565b9050919050565b7f4e487b7100000000000000000000000000000000000000000000000000000000600052601160045260246000fd5b6000612f9f8261233b565b9150612faa8361233b565b925082821015612fbd57612fbc612f65565b5b828203905092915050565b6000612fd38261233b565b9150612fde8361233b565b9250827fffffffffffffffffffffffffffffffffffffffffffffffffffffffffffffffff0382111561301357613012612f65565b5b828201905092915050565b7f4552433732313a206d696e7420746f20746865207a65726f2061646472657373600082015250565b600061305460208361228b565b915061305f8261301e565b602082019050919050565b6000602082019050818103600083015261308381613047565b9050919050565b7f4552433732313a20746f6b656e20616c7265616479206d696e74656400000000600082015250565b60006130c0601c8361228b565b91506130cb8261308a565b602082019050919050565b600060208201905081810360008301526130ef816130b3565b9050919050565b7f45524337323155524953746f726167653a2055524920736574206f66206e6f6e60008201527f6578697374656e7420746f6b656e000000000000000000000000000000000000602082015250565b6000613152602e8361228b565b915061315d826130f6565b604082019050919050565b6000602082019050818103600083015261318181613145565b9050919050565b7f4552433732313a20617070726f766520746f2063616c6c657200000000000000600082015250565b60006131be60198361228b565b91506131c982613188565b602082019050919050565b600060208201905081810360008301526131ed816131b1565b9050919050565b7f4552433732313a207472616e7366657220746f206e6f6e20455243373231526560008201527f63656976657220696d706c656d656e7465720000000000000000000000000000602082015250565b600061325060328361228b565b915061325b826131f4565b604082019050919050565b6000602082019050818103600083015261327f81613243565b9050919050565b60006132928285612b25565b915061329e8284612b25565b91508190509392505050565b7f4e6f7420616c6c6f77656420746f207472616e7366657220746f6b656e000000600082015250565b60006132e0601d8361228b565b91506132eb826132aa565b602082019050919050565b6000602082019050818103600083015261330f816132d3565b9050919050565b600081519050919050565b600082825260208201905092915050565b600061333d82613316565b6133478185613321565b935061335781856020860161229c565b613360816122cf565b840191505092915050565b600060808201905061338060008301876123d0565b61338d60208301866123d0565b61339a604083018561264a565b81810360608301526133ac8184613332565b905095945050505050565b6000815190506133c6816121f1565b92915050565b6000602082840312156133e2576133e16121bb565b5b60006133f0848285016133b7565b91505092915050565b60006134048261233b565b91507fffffffffffffffffffffffffffffffffffffffffffffffffffffffffffffffff82141561343757613436612f65565b5b600182019050919050565b7f4e487b7100000000000000000000000000000000000000000000000000000000600052601260045260246000fd5b600061347c8261233b565b91506134878361233b565b92508261349757613496613442565b5b828204905092915050565b60006134ad8261233b565b91506134b88361233b565b9250826134c8576134c7613442565b5b828206905092915050565b7f4e487b7100000000000000000000000000000000000000000000000000000000600052603260045260246000fdfea264697066735822122026d3b1c23022709d24e9e458a8c9af13a75166f17ed882c2be8653ffb36ba09264736f6c63430008090033",
  "linkReferences": {},
  "deployedLinkReferences": {}
}