{
  "_format": "hh-sol-artifact-1",
  "contractName": "FiredGuys",
  "sourceName": "contracts/MyNFT.sol",
  "abi": [
    {
      "inputs": [],
      "stateMutability": "nonpayable",
      "type": "constructor"
    },
    {
      "anonymous": false,
      "inputs": [
        {
          "indexed": true,
          "internalType": "address",
          "name": "owner",
          "type": "address"
        },
        {
          "indexed": true,
          "internalType": "address",
          "name": "approved",
          "type": "address"
        },
        {
          "indexed": true,
          "internalType": "uint256",
          "name": "tokenId",
          "type": "uint256"
        }
      ],
      "name": "Approval",
      "type": "event"
    },
    {
      "anonymous": false,
      "inputs": [
        {
          "indexed": true,
          "internalType": "address",
          "name": "owner",
          "type": "address"
        },
        {
          "indexed": true,
          "internalType": "address",
          "name": "operator",
          "type": "address"
        },
        {
          "indexed": false,
          "internalType": "bool",
          "name": "approved",
          "type": "bool"
        }
      ],
      "name": "ApprovalForAll",
      "type": "event"
    },
    {
      "anonymous": false,
      "inputs": [
        {
          "indexed": true,
          "internalType": "address",
          "name": "previousOwner",
          "type": "address"
        },
        {
          "indexed": true,
          "internalType": "address",
          "name": "newOwner",
          "type": "address"
        }
      ],
      "name": "OwnershipTransferred",
      "type": "event"
    },
    {
      "anonymous": false,
      "inputs": [
        {
          "indexed": true,
          "internalType": "address",
          "name": "from",
          "type": "address"
        },
        {
          "indexed": true,
          "internalType": "address",
          "name": "to",
          "type": "address"
        },
        {
          "indexed": true,
          "internalType": "uint256",
          "name": "tokenId",
          "type": "uint256"
        }
      ],
      "name": "Transfer",
      "type": "event"
    },
    {
      "inputs": [
        {
          "internalType": "address",
          "name": "to",
          "type": "address"
        },
        {
          "internalType": "uint256",
          "name": "tokenId",
          "type": "uint256"
        }
      ],
      "name": "approve",
      "outputs": [],
      "stateMutability": "nonpayable",
      "type": "function"
    },
    {
      "inputs": [
        {
          "internalType": "address",
          "name": "owner",
          "type": "address"
        }
      ],
      "name": "balanceOf",
      "outputs": [
        {
          "internalType": "uint256",
          "name": "",
          "type": "uint256"
        }
      ],
      "stateMutability": "view",
      "type": "function"
    },
    {
      "inputs": [],
      "name": "count",
      "outputs": [
        {
          "internalType": "uint256",
          "name": "",
          "type": "uint256"
        }
      ],
      "stateMutability": "view",
      "type": "function"
    },
    {
      "inputs": [
        {
          "internalType": "uint256",
          "name": "tokenId",
          "type": "uint256"
        }
      ],
      "name": "getApproved",
      "outputs": [
        {
          "internalType": "address",
          "name": "",
          "type": "address"
        }
      ],
      "stateMutability": "view",
      "type": "function"
    },
    {
      "inputs": [
        {
          "internalType": "address",
          "name": "owner",
          "type": "address"
        },
        {
          "internalType": "address",
          "name": "operator",
          "type": "address"
        }
      ],
      "name": "isApprovedForAll",
      "outputs": [
        {
          "internalType": "bool",
          "name": "",
          "type": "bool"
        }
      ],
      "stateMutability": "view",
      "type": "function"
    },
    {
      "inputs": [
        {
          "internalType": "string",
          "name": "uri",
          "type": "string"
        }
      ],
      "name": "isContentOwned",
      "outputs": [
        {
          "internalType": "bool",
          "name": "",
          "type": "bool"
        }
      ],
      "stateMutability": "view",
      "type": "function"
    },
    {
      "inputs": [],
      "name": "name",
      "outputs": [
        {
          "internalType": "string",
          "name": "",
          "type": "string"
        }
      ],
      "stateMutability": "view",
      "type": "function"
    },
    {
      "inputs": [],
      "name": "owner",
      "outputs": [
        {
          "internalType": "address",
          "name": "",
          "type": "address"
        }
      ],
      "stateMutability": "view",
      "type": "function"
    },
    {
      "inputs": [
        {
          "internalType": "uint256",
          "name": "tokenId",
          "type": "uint256"
        }
      ],
      "name": "ownerOf",
      "outputs": [
        {
          "internalType": "address",
          "name": "",
          "type": "address"
        }
      ],
      "stateMutability": "view",
      "type": "function"
    },
    {
      "inputs": [
        {
          "internalType": "address",
          "name": "recipient",
          "type": "address"
        },
        {
          "internalType": "string",
          "name": "metadataURI",
          "type": "string"
        }
      ],
      "name": "payToMint",
      "outputs": [
        {
          "internalType": "uint256",
          "name": "",
          "type": "uint256"
        }
      ],
      "stateMutability": "payable",
      "type": "function"
    },
    {
      "inputs": [],
      "name": "renounceOwnership",
      "outputs": [],
      "stateMutability": "nonpayable",
      "type": "function"
    },
    {
      "inputs": [
        {
          "internalType": "address",
          "name": "to",
          "type": "address"
        },
        {
          "internalType": "string",
          "name": "uri",
          "type": "string"
        }
      ],
      "name": "safeMint",
      "outputs": [],
      "stateMutability": "nonpayable",
      "type": "function"
    },
    {
      "inputs": [
        {
          "internalType": "address",
          "name": "from",
          "type": "address"
        },
        {
          "internalType": "address",
          "name": "to",
          "type": "address"
        },
        {
          "internalType": "uint256",
          "name": "tokenId",
          "type": "uint256"
        }
      ],
      "name": "safeTransferFrom",
      "outputs": [],
      "stateMutability": "nonpayable",
      "type": "function"
    },
    {
      "inputs": [
        {
          "internalType": "address",
          "name": "from",
          "type": "address"
        },
        {
          "internalType": "address",
          "name": "to",
          "type": "address"
        },
        {
          "internalType": "uint256",
          "name": "tokenId",
          "type": "uint256"
        },
        {
          "internalType": "bytes",
          "name": "data",
          "type": "bytes"
        }
      ],
      "name": "safeTransferFrom",
      "outputs": [],
      "stateMutability": "nonpayable",
      "type": "function"
    },
    {
      "inputs": [
        {
          "internalType": "address",
          "name": "operator",
          "type": "address"
        },
        {
          "internalType": "bool",
          "name": "approved",
          "type": "bool"
        }
      ],
      "name": "setApprovalForAll",
      "outputs": [],
      "stateMutability": "nonpayable",
      "type": "function"
    },
    {
      "inputs": [
        {
          "internalType": "bytes4",
          "name": "interfaceId",
          "type": "bytes4"
        }
      ],
      "name": "supportsInterface",
      "outputs": [
        {
          "internalType": "bool",
          "name": "",
          "type": "bool"
        }
      ],
      "stateMutability": "view",
      "type": "function"
    },
    {
      "inputs": [],
      "name": "symbol",
      "outputs": [
        {
          "internalType": "string",
          "name": "",
          "type": "string"
        }
      ],
      "stateMutability": "view",
      "type": "function"
    },
    {
      "inputs": [
        {
          "internalType": "uint256",
          "name": "tokenId",
          "type": "uint256"
        }
      ],
      "name": "tokenURI",
      "outputs": [
        {
          "internalType": "string",
          "name": "",
          "type": "string"
        }
      ],
      "stateMutability": "view",
      "type": "function"
    },
    {
      "inputs": [
        {
          "internalType": "address",
          "name": "from",
          "type": "address"
        },
        {
          "internalType": "address",
          "name": "to",
          "type": "address"
        },
        {
          "internalType": "uint256",
          "name": "tokenId",
          "type": "uint256"
        }
      ],
      "name": "transferFrom",
      "outputs": [],
      "stateMutability": "nonpayable",
      "type": "function"
    },
    {
      "inputs": [
        {
          "internalType": "address",
          "name": "newOwner",
          "type": "address"
        }
      ],
      "name": "transferOwnership",
      "outputs": [],
      "stateMutability": "nonpayable",
      "type": "function"
    }
  ],
  "bytecode": "0x60806040523480156200001157600080fd5b506040518060400160405280600981526020017f46697265644775797300000000000000000000000000000000000000000000008152506040518060400160405280600381526020017f4659520000000000000000000000000000000000000000000000000000000000815250816000908051906020019062000096929190620001a6565b508060019080519060200190620000af929190620001a6565b505050620000d2620000c6620000d860201b60201c565b620000e060201b60201c565b620002bb565b600033905090565b6000600760009054906101000a900473ffffffffffffffffffffffffffffffffffffffff16905081600760006101000a81548173ffffffffffffffffffffffffffffffffffffffff021916908373ffffffffffffffffffffffffffffffffffffffff1602179055508173ffffffffffffffffffffffffffffffffffffffff168173ffffffffffffffffffffffffffffffffffffffff167f8be0079c531659141344cd1fd0a4f28419497f9722a3daafe3b4186f6b6457e060405160405180910390a35050565b828054620001b49062000285565b90600052602060002090601f016020900481019282620001d8576000855562000224565b82601f10620001f357805160ff191683800117855562000224565b8280016001018555821562000224579182015b828111156200022357825182559160200191906001019062000206565b5b50905062000233919062000237565b5090565b5b808211156200025257600081600090555060010162000238565b5090565b7f4e487b7100000000000000000000000000000000000000000000000000000000600052602260045260246000fd5b600060028204905060018216806200029e57607f821691505b60208210811415620002b557620002b462000256565b5b50919050565b61312080620002cb6000396000f3fe60806040526004361061011f5760003560e01c8063715018a6116100a0578063b88d4fde11610064578063b88d4fde146103ec578063c87b56dd14610415578063d204c45e14610452578063e985e9c51461047b578063f2fde38b146104b85761011f565b8063715018a6146103195780638da5cb5b1461033057806395d89b411461035b5780639f1cabc614610386578063a22cb465146103c35761011f565b806323b872dd116100e757806323b872dd1461021d57806342842e0e14610246578063615fd9e21461026f5780636352211e1461029f57806370a08231146102dc5761011f565b806301ffc9a71461012457806306661abd1461016157806306fdde031461018c578063081812fc146101b7578063095ea7b3146101f4575b600080fd5b34801561013057600080fd5b5061014b60048036038101906101469190611eba565b6104e1565b6040516101589190611f02565b60405180910390f35b34801561016d57600080fd5b506101766105c3565b6040516101839190611f36565b60405180910390f35b34801561019857600080fd5b506101a16105d4565b6040516101ae9190611fea565b60405180910390f35b3480156101c357600080fd5b506101de60048036038101906101d99190612038565b610666565b6040516101eb91906120a6565b60405180910390f35b34801561020057600080fd5b5061021b600480360381019061021691906120ed565b6106ac565b005b34801561022957600080fd5b50610244600480360381019061023f919061212d565b6107c4565b005b34801561025257600080fd5b5061026d6004803603810190610268919061212d565b610824565b005b610289600480360381019061028491906122b5565b610844565b6040516102969190611f36565b60405180910390f35b3480156102ab57600080fd5b506102c660048036038101906102c19190612038565b610970565b6040516102d391906120a6565b60405180910390f35b3480156102e857600080fd5b5061030360048036038101906102fe9190612311565b610a22565b6040516103109190611f36565b60405180910390f35b34801561032557600080fd5b5061032e610ada565b005b34801561033c57600080fd5b50610345610aee565b60405161035291906120a6565b60405180910390f35b34801561036757600080fd5b50610370610b18565b60405161037d9190611fea565b60405180910390f35b34801561039257600080fd5b506103ad60048036038101906103a8919061233e565b610baa565b6040516103ba9190611f02565b60405180910390f35b3480156103cf57600080fd5b506103ea60048036038101906103e591906123b3565b610be5565b005b3480156103f857600080fd5b50610413600480360381019061040e9190612494565b610bfb565b005b34801561042157600080fd5b5061043c60048036038101906104379190612038565b610c5d565b6040516104499190611fea565b60405180910390f35b34801561045e57600080fd5b50610479600480360381019061047491906122b5565b610c6f565b005b34801561048757600080fd5b506104a2600480360381019061049d9190612517565b610ce0565b6040516104af9190611f02565b60405180910390f35b3480156104c457600080fd5b506104df60048036038101906104da9190612311565b610d74565b005b60007f80ac58cd000000000000000000000000000000000000000000000000000000007bffffffffffffffffffffffffffffffffffffffffffffffffffffffff1916827bffffffffffffffffffffffffffffffffffffffffffffffffffffffff191614806105ac57507f5b5e139f000000000000000000000000000000000000000000000000000000007bffffffffffffffffffffffffffffffffffffffffffffffffffffffff1916827bffffffffffffffffffffffffffffffffffffffffffffffffffffffff1916145b806105bc57506105bb82610df8565b5b9050919050565b60006105cf6008610e62565b905090565b6060600080546105e390612586565b80601f016020809104026020016040519081016040528092919081815260200182805461060f90612586565b801561065c5780601f106106315761010080835404028352916020019161065c565b820191906000526020600020905b81548152906001019060200180831161063f57829003601f168201915b5050505050905090565b600061067182610e70565b6004600083815260200190815260200160002060009054906101000a900473ffffffffffffffffffffffffffffffffffffffff169050919050565b60006106b782610970565b90508073ffffffffffffffffffffffffffffffffffffffff168373ffffffffffffffffffffffffffffffffffffffff161415610728576040517f08c379a000000000000000000000000000000000000000000000000000000000815260040161071f9061262a565b60405180910390fd5b8073ffffffffffffffffffffffffffffffffffffffff16610747610ebb565b73ffffffffffffffffffffffffffffffffffffffff161480610776575061077581610770610ebb565b610ce0565b5b6107b5576040517f08c379a00000000000000000000000000000000000000000000000000000000081526004016107ac906126bc565b60405180910390fd5b6107bf8383610ec3565b505050565b6107d56107cf610ebb565b82610f7c565b610814576040517f08c379a000000000000000000000000000000000000000000000000000000000815260040161080b9061274e565b60405180910390fd5b61081f838383611011565b505050565b61083f83838360405180602001604052806000815250610bfb565b505050565b6000600160098360405161085891906127aa565b908152602001604051809103902060009054906101000a900460ff1660ff1614156108b8576040517f08c379a00000000000000000000000000000000000000000000000000000000081526004016108af9061280d565b60405180910390fd5b66b1a2bc2ec50000341015610902576040517f08c379a00000000000000000000000000000000000000000000000000000000081526004016108f990612879565b60405180910390fd5b600061090e6008610e62565b905061091a6008611278565b600160098460405161092c91906127aa565b908152602001604051809103902060006101000a81548160ff021916908360ff16021790555061095c848261128e565b6109668184611468565b8091505092915050565b6000806002600084815260200190815260200160002060009054906101000a900473ffffffffffffffffffffffffffffffffffffffff169050600073ffffffffffffffffffffffffffffffffffffffff168173ffffffffffffffffffffffffffffffffffffffff161415610a19576040517f08c379a0000000000000000000000000000000000000000000000000000000008152600401610a10906128e5565b60405180910390fd5b80915050919050565b60008073ffffffffffffffffffffffffffffffffffffffff168273ffffffffffffffffffffffffffffffffffffffff161415610a93576040517f08c379a0000000000000000000000000000000000000000000000000000000008152600401610a8a90612977565b60405180910390fd5b600360008373ffffffffffffffffffffffffffffffffffffffff1673ffffffffffffffffffffffffffffffffffffffff168152602001908152602001600020549050919050565b610ae26114dc565b610aec600061155a565b565b6000600760009054906101000a900473ffffffffffffffffffffffffffffffffffffffff16905090565b606060018054610b2790612586565b80601f0160208091040260200160405190810160405280929190818152602001828054610b5390612586565b8015610ba05780601f10610b7557610100808354040283529160200191610ba0565b820191906000526020600020905b815481529060010190602001808311610b8357829003601f168201915b5050505050905090565b60006001600983604051610bbe91906127aa565b908152602001604051809103902060009054906101000a900460ff1660ff16149050919050565b610bf7610bf0610ebb565b8383611620565b5050565b610c0c610c06610ebb565b83610f7c565b610c4b576040517f08c379a0000000000000000000000000000000000000000000000000000000008152600401610c429061274e565b60405180910390fd5b610c578484848461178d565b50505050565b6060610c68826117e9565b9050919050565b610c776114dc565b6000610c836008610e62565b9050610c8f6008611278565b610c9983826118fc565b610ca38183611468565b6001600983604051610cb591906127aa565b908152602001604051809103902060006101000a81548160ff021916908360ff160217905550505050565b6000600560008473ffffffffffffffffffffffffffffffffffffffff1673ffffffffffffffffffffffffffffffffffffffff16815260200190815260200160002060008373ffffffffffffffffffffffffffffffffffffffff1673ffffffffffffffffffffffffffffffffffffffff16815260200190815260200160002060009054906101000a900460ff16905092915050565b610d7c6114dc565b600073ffffffffffffffffffffffffffffffffffffffff168173ffffffffffffffffffffffffffffffffffffffff161415610dec576040517f08c379a0000000000000000000000000000000000000000000000000000000008152600401610de390612a09565b60405180910390fd5b610df58161155a565b50565b60007f01ffc9a7000000000000000000000000000000000000000000000000000000007bffffffffffffffffffffffffffffffffffffffffffffffffffffffff1916827bffffffffffffffffffffffffffffffffffffffffffffffffffffffff1916149050919050565b600081600001549050919050565b610e798161191a565b610eb8576040517f08c379a0000000000000000000000000000000000000000000000000000000008152600401610eaf906128e5565b60405180910390fd5b50565b600033905090565b816004600083815260200190815260200160002060006101000a81548173ffffffffffffffffffffffffffffffffffffffff021916908373ffffffffffffffffffffffffffffffffffffffff160217905550808273ffffffffffffffffffffffffffffffffffffffff16610f3683610970565b73ffffffffffffffffffffffffffffffffffffffff167f8c5be1e5ebec7d5bd14f71427d1e84f3dd0314c0f7b2291e5b200ac8c7c3b92560405160405180910390a45050565b600080610f8883610970565b90508073ffffffffffffffffffffffffffffffffffffffff168473ffffffffffffffffffffffffffffffffffffffff161480610fca5750610fc98185610ce0565b5b8061100857508373ffffffffffffffffffffffffffffffffffffffff16610ff084610666565b73ffffffffffffffffffffffffffffffffffffffff16145b91505092915050565b8273ffffffffffffffffffffffffffffffffffffffff1661103182610970565b73ffffffffffffffffffffffffffffffffffffffff1614611087576040517f08c379a000000000000000000000000000000000000000000000000000000000815260040161107e90612a9b565b60405180910390fd5b600073ffffffffffffffffffffffffffffffffffffffff168273ffffffffffffffffffffffffffffffffffffffff1614156110f7576040517f08c379a00000000000000000000000000000000000000000000000000000000081526004016110ee90612b2d565b60405180910390fd5b611102838383611986565b61110d600082610ec3565b6001600360008573ffffffffffffffffffffffffffffffffffffffff1673ffffffffffffffffffffffffffffffffffffffff168152602001908152602001600020600082825461115d9190612b7c565b925050819055506001600360008473ffffffffffffffffffffffffffffffffffffffff1673ffffffffffffffffffffffffffffffffffffffff16815260200190815260200160002060008282546111b49190612bb0565b92505081905550816002600083815260200190815260200160002060006101000a81548173ffffffffffffffffffffffffffffffffffffffff021916908373ffffffffffffffffffffffffffffffffffffffff160217905550808273ffffffffffffffffffffffffffffffffffffffff168473ffffffffffffffffffffffffffffffffffffffff167fddf252ad1be2c89b69c2b068fc378daa952ba7f163c4a11628f55a4df523b3ef60405160405180910390a461127383838361198b565b505050565b6001816000016000828254019250508190555050565b600073ffffffffffffffffffffffffffffffffffffffff168273ffffffffffffffffffffffffffffffffffffffff1614156112fe576040517f08c379a00000000000000000000000000000000000000000000000000000000081526004016112f590612c52565b60405180910390fd5b6113078161191a565b15611347576040517f08c379a000000000000000000000000000000000000000000000000000000000815260040161133e90612cbe565b60405180910390fd5b61135360008383611986565b6001600360008473ffffffffffffffffffffffffffffffffffffffff1673ffffffffffffffffffffffffffffffffffffffff16815260200190815260200160002060008282546113a39190612bb0565b92505081905550816002600083815260200190815260200160002060006101000a81548173ffffffffffffffffffffffffffffffffffffffff021916908373ffffffffffffffffffffffffffffffffffffffff160217905550808273ffffffffffffffffffffffffffffffffffffffff16600073ffffffffffffffffffffffffffffffffffffffff167fddf252ad1be2c89b69c2b068fc378daa952ba7f163c4a11628f55a4df523b3ef60405160405180910390a46114646000838361198b565b5050565b6114718261191a565b6114b0576040517f08c379a00000000000000000000000000000000000000000000000000000000081526004016114a790612d50565b60405180910390fd5b806006600084815260200190815260200160002090805190602001906114d7929190611dab565b505050565b6114e4610ebb565b73ffffffffffffffffffffffffffffffffffffffff16611502610aee565b73ffffffffffffffffffffffffffffffffffffffff1614611558576040517f08c379a000000000000000000000000000000000000000000000000000000000815260040161154f90612dbc565b60405180910390fd5b565b6000600760009054906101000a900473ffffffffffffffffffffffffffffffffffffffff16905081600760006101000a81548173ffffffffffffffffffffffffffffffffffffffff021916908373ffffffffffffffffffffffffffffffffffffffff1602179055508173ffffffffffffffffffffffffffffffffffffffff168173ffffffffffffffffffffffffffffffffffffffff167f8be0079c531659141344cd1fd0a4f28419497f9722a3daafe3b4186f6b6457e060405160405180910390a35050565b8173ffffffffffffffffffffffffffffffffffffffff168373ffffffffffffffffffffffffffffffffffffffff16141561168f576040517f08c379a000000000000000000000000000000000000000000000000000000000815260040161168690612e28565b60405180910390fd5b80600560008573ffffffffffffffffffffffffffffffffffffffff1673ffffffffffffffffffffffffffffffffffffffff16815260200190815260200160002060008473ffffffffffffffffffffffffffffffffffffffff1673ffffffffffffffffffffffffffffffffffffffff16815260200190815260200160002060006101000a81548160ff0219169083151502179055508173ffffffffffffffffffffffffffffffffffffffff168373ffffffffffffffffffffffffffffffffffffffff167f17307eab39ab6107e8899845ad3d59bd9653f200f220920489ca2b5937696c31836040516117809190611f02565b60405180910390a3505050565b611798848484611011565b6117a484848484611990565b6117e3576040517f08c379a00000000000000000000000000000000000000000000000000000000081526004016117da90612eba565b60405180910390fd5b50505050565b60606117f482610e70565b600060066000848152602001908152602001600020805461181490612586565b80601f016020809104026020016040519081016040528092919081815260200182805461184090612586565b801561188d5780601f106118625761010080835404028352916020019161188d565b820191906000526020600020905b81548152906001019060200180831161187057829003601f168201915b50505050509050600061189e611b27565b90506000815114156118b45781925050506118f7565b6000825111156118e95780826040516020016118d1929190612eda565b604051602081830303815290604052925050506118f7565b6118f284611b64565b925050505b919050565b611916828260405180602001604052806000815250611bcc565b5050565b60008073ffffffffffffffffffffffffffffffffffffffff166002600084815260200190815260200160002060009054906101000a900473ffffffffffffffffffffffffffffffffffffffff1673ffffffffffffffffffffffffffffffffffffffff1614159050919050565b505050565b505050565b60006119b18473ffffffffffffffffffffffffffffffffffffffff16611c27565b15611b1a578373ffffffffffffffffffffffffffffffffffffffff1663150b7a026119da610ebb565b8786866040518563ffffffff1660e01b81526004016119fc9493929190612f53565b602060405180830381600087803b158015611a1657600080fd5b505af1925050508015611a4757506040513d601f19601f82011682018060405250810190611a449190612fb4565b60015b611aca573d8060008114611a77576040519150601f19603f3d011682016040523d82523d6000602084013e611a7c565b606091505b50600081511415611ac2576040517f08c379a0000000000000000000000000000000000000000000000000000000008152600401611ab990612eba565b60405180910390fd5b805181602001fd5b63150b7a0260e01b7bffffffffffffffffffffffffffffffffffffffffffffffffffffffff1916817bffffffffffffffffffffffffffffffffffffffffffffffffffffffff191614915050611b1f565b600190505b949350505050565b60606040518060400160405280600781526020017f697066733a2f2f00000000000000000000000000000000000000000000000000815250905090565b6060611b6f82610e70565b6000611b79611b27565b90506000815111611b995760405180602001604052806000815250611bc4565b80611ba384611c4a565b604051602001611bb4929190612eda565b6040516020818303038152906040525b915050919050565b611bd6838361128e565b611be36000848484611990565b611c22576040517f08c379a0000000000000000000000000000000000000000000000000000000008152600401611c1990612eba565b60405180910390fd5b505050565b6000808273ffffffffffffffffffffffffffffffffffffffff163b119050919050565b60606000821415611c92576040518060400160405280600181526020017f30000000000000000000000000000000000000000000000000000000000000008152509050611da6565b600082905060005b60008214611cc4578080611cad90612fe1565b915050600a82611cbd9190613059565b9150611c9a565b60008167ffffffffffffffff811115611ce057611cdf61218a565b5b6040519080825280601f01601f191660200182016040528015611d125781602001600182028036833780820191505090505b5090505b60008514611d9f57600182611d2b9190612b7c565b9150600a85611d3a919061308a565b6030611d469190612bb0565b60f81b818381518110611d5c57611d5b6130bb565b5b60200101907effffffffffffffffffffffffffffffffffffffffffffffffffffffffffffff1916908160001a905350600a85611d989190613059565b9450611d16565b8093505050505b919050565b828054611db790612586565b90600052602060002090601f016020900481019282611dd95760008555611e20565b82601f10611df257805160ff1916838001178555611e20565b82800160010185558215611e20579182015b82811115611e1f578251825591602001919060010190611e04565b5b509050611e2d9190611e31565b5090565b5b80821115611e4a576000816000905550600101611e32565b5090565b6000604051905090565b600080fd5b600080fd5b60007fffffffff0000000000000000000000000000000000000000000000000000000082169050919050565b611e9781611e62565b8114611ea257600080fd5b50565b600081359050611eb481611e8e565b92915050565b600060208284031215611ed057611ecf611e58565b5b6000611ede84828501611ea5565b91505092915050565b60008115159050919050565b611efc81611ee7565b82525050565b6000602082019050611f176000830184611ef3565b92915050565b6000819050919050565b611f3081611f1d565b82525050565b6000602082019050611f4b6000830184611f27565b92915050565b600081519050919050565b600082825260208201905092915050565b60005b83811015611f8b578082015181840152602081019050611f70565b83811115611f9a576000848401525b50505050565b6000601f19601f8301169050919050565b6000611fbc82611f51565b611fc68185611f5c565b9350611fd6818560208601611f6d565b611fdf81611fa0565b840191505092915050565b600060208201905081810360008301526120048184611fb1565b905092915050565b61201581611f1d565b811461202057600080fd5b50565b6000813590506120328161200c565b92915050565b60006020828403121561204e5761204d611e58565b5b600061205c84828501612023565b91505092915050565b600073ffffffffffffffffffffffffffffffffffffffff82169050919050565b600061209082612065565b9050919050565b6120a081612085565b82525050565b60006020820190506120bb6000830184612097565b92915050565b6120ca81612085565b81146120d557600080fd5b50565b6000813590506120e7816120c1565b92915050565b6000806040838503121561210457612103611e58565b5b6000612112858286016120d8565b925050602061212385828601612023565b9150509250929050565b60008060006060848603121561214657612145611e58565b5b6000612154868287016120d8565b9350506020612165868287016120d8565b925050604061217686828701612023565b9150509250925092565b600080fd5b600080fd5b7f4e487b7100000000000000000000000000000000000000000000000000000000600052604160045260246000fd5b6121c282611fa0565b810181811067ffffffffffffffff821117156121e1576121e061218a565b5b80604052505050565b60006121f4611e4e565b905061220082826121b9565b919050565b600067ffffffffffffffff8211156122205761221f61218a565b5b61222982611fa0565b9050602081019050919050565b82818337600083830152505050565b600061225861225384612205565b6121ea565b90508281526020810184848401111561227457612273612185565b5b61227f848285612236565b509392505050565b600082601f83011261229c5761229b612180565b5b81356122ac848260208601612245565b91505092915050565b600080604083850312156122cc576122cb611e58565b5b60006122da858286016120d8565b925050602083013567ffffffffffffffff8111156122fb576122fa611e5d565b5b61230785828601612287565b9150509250929050565b60006020828403121561232757612326611e58565b5b6000612335848285016120d8565b91505092915050565b60006020828403121561235457612353611e58565b5b600082013567ffffffffffffffff81111561237257612371611e5d565b5b61237e84828501612287565b91505092915050565b61239081611ee7565b811461239b57600080fd5b50565b6000813590506123ad81612387565b92915050565b600080604083850312156123ca576123c9611e58565b5b60006123d8858286016120d8565b92505060206123e98582860161239e565b9150509250929050565b600067ffffffffffffffff82111561240e5761240d61218a565b5b61241782611fa0565b9050602081019050919050565b6000612437612432846123f3565b6121ea565b90508281526020810184848401111561245357612452612185565b5b61245e848285612236565b509392505050565b600082601f83011261247b5761247a612180565b5b813561248b848260208601612424565b91505092915050565b600080600080608085870312156124ae576124ad611e58565b5b60006124bc878288016120d8565b94505060206124cd878288016120d8565b93505060406124de87828801612023565b925050606085013567ffffffffffffffff8111156124ff576124fe611e5d565b5b61250b87828801612466565b91505092959194509250565b6000806040838503121561252e5761252d611e58565b5b600061253c858286016120d8565b925050602061254d858286016120d8565b9150509250929050565b7f4e487b7100000000000000000000000000000000000000000000000000000000600052602260045260246000fd5b6000600282049050600182168061259e57607f821691505b602082108114156125b2576125b1612557565b5b50919050565b7f4552433732313a20617070726f76616c20746f2063757272656e74206f776e6560008201527f7200000000000000000000000000000000000000000000000000000000000000602082015250565b6000612614602183611f5c565b915061261f826125b8565b604082019050919050565b6000602082019050818103600083015261264381612607565b9050919050565b7f4552433732313a20617070726f76652063616c6c6572206973206e6f7420746f60008201527f6b656e206f776e6572206e6f7220617070726f76656420666f7220616c6c0000602082015250565b60006126a6603e83611f5c565b91506126b18261264a565b604082019050919050565b600060208201905081810360008301526126d581612699565b9050919050565b7f4552433732313a2063616c6c6572206973206e6f7420746f6b656e206f776e6560008201527f72206e6f7220617070726f766564000000000000000000000000000000000000602082015250565b6000612738602e83611f5c565b9150612743826126dc565b604082019050919050565b600060208201905081810360008301526127678161272b565b9050919050565b600081905092915050565b600061278482611f51565b61278e818561276e565b935061279e818560208601611f6d565b80840191505092915050565b60006127b68284612779565b915081905092915050565b7f4e465420616c7265616479206d696e7465642100000000000000000000000000600082015250565b60006127f7601383611f5c565b9150612802826127c1565b602082019050919050565b60006020820190508181036000830152612826816127ea565b9050919050565b7f4e65656420746f20706179207570210000000000000000000000000000000000600082015250565b6000612863600f83611f5c565b915061286e8261282d565b602082019050919050565b6000602082019050818103600083015261289281612856565b9050919050565b7f4552433732313a20696e76616c696420746f6b656e2049440000000000000000600082015250565b60006128cf601883611f5c565b91506128da82612899565b602082019050919050565b600060208201905081810360008301526128fe816128c2565b9050919050565b7f4552433732313a2061646472657373207a65726f206973206e6f74206120766160008201527f6c6964206f776e65720000000000000000000000000000000000000000000000602082015250565b6000612961602983611f5c565b915061296c82612905565b604082019050919050565b6000602082019050818103600083015261299081612954565b9050919050565b7f4f776e61626c653a206e6577206f776e657220697320746865207a65726f206160008201527f6464726573730000000000000000000000000000000000000000000000000000602082015250565b60006129f3602683611f5c565b91506129fe82612997565b604082019050919050565b60006020820190508181036000830152612a22816129e6565b9050919050565b7f4552433732313a207472616e736665722066726f6d20696e636f72726563742060008201527f6f776e6572000000000000000000000000000000000000000000000000000000602082015250565b6000612a85602583611f5c565b9150612a9082612a29565b604082019050919050565b60006020820190508181036000830152612ab481612a78565b9050919050565b7f4552433732313a207472616e7366657220746f20746865207a65726f2061646460008201527f7265737300000000000000000000000000000000000000000000000000000000602082015250565b6000612b17602483611f5c565b9150612b2282612abb565b604082019050919050565b60006020820190508181036000830152612b4681612b0a565b9050919050565b7f4e487b7100000000000000000000000000000000000000000000000000000000600052601160045260246000fd5b6000612b8782611f1d565b9150612b9283611f1d565b925082821015612ba557612ba4612b4d565b5b828203905092915050565b6000612bbb82611f1d565b9150612bc683611f1d565b9250827fffffffffffffffffffffffffffffffffffffffffffffffffffffffffffffffff03821115612bfb57612bfa612b4d565b5b828201905092915050565b7f4552433732313a206d696e7420746f20746865207a65726f2061646472657373600082015250565b6000612c3c602083611f5c565b9150612c4782612c06565b602082019050919050565b60006020820190508181036000830152612c6b81612c2f565b9050919050565b7f4552433732313a20746f6b656e20616c7265616479206d696e74656400000000600082015250565b6000612ca8601c83611f5c565b9150612cb382612c72565b602082019050919050565b60006020820190508181036000830152612cd781612c9b565b9050919050565b7f45524337323155524953746f726167653a2055524920736574206f66206e6f6e60008201527f6578697374656e7420746f6b656e000000000000000000000000000000000000602082015250565b6000612d3a602e83611f5c565b9150612d4582612cde565b604082019050919050565b60006020820190508181036000830152612d6981612d2d565b9050919050565b7f4f776e61626c653a2063616c6c6572206973206e6f7420746865206f776e6572600082015250565b6000612da6602083611f5c565b9150612db182612d70565b602082019050919050565b60006020820190508181036000830152612dd581612d99565b9050919050565b7f4552433732313a20617070726f766520746f2063616c6c657200000000000000600082015250565b6000612e12601983611f5c565b9150612e1d82612ddc565b602082019050919050565b60006020820190508181036000830152612e4181612e05565b9050919050565b7f4552433732313a207472616e7366657220746f206e6f6e20455243373231526560008201527f63656976657220696d706c656d656e7465720000000000000000000000000000602082015250565b6000612ea4603283611f5c565b9150612eaf82612e48565b604082019050919050565b60006020820190508181036000830152612ed381612e97565b9050919050565b6000612ee68285612779565b9150612ef28284612779565b91508190509392505050565b600081519050919050565b600082825260208201905092915050565b6000612f2582612efe565b612f2f8185612f09565b9350612f3f818560208601611f6d565b612f4881611fa0565b840191505092915050565b6000608082019050612f686000830187612097565b612f756020830186612097565b612f826040830185611f27565b8181036060830152612f948184612f1a565b905095945050505050565b600081519050612fae81611e8e565b92915050565b600060208284031215612fca57612fc9611e58565b5b6000612fd884828501612f9f565b91505092915050565b6000612fec82611f1d565b91507fffffffffffffffffffffffffffffffffffffffffffffffffffffffffffffffff82141561301f5761301e612b4d565b5b600182019050919050565b7f4e487b7100000000000000000000000000000000000000000000000000000000600052601260045260246000fd5b600061306482611f1d565b915061306f83611f1d565b92508261307f5761307e61302a565b5b828204905092915050565b600061309582611f1d565b91506130a083611f1d565b9250826130b0576130af61302a565b5b828206905092915050565b7f4e487b7100000000000000000000000000000000000000000000000000000000600052603260045260246000fdfea264697066735822122003c25ec3fd1e9b2bafd6ea95afce90fcdbbf1a3b1183f682c25209191d32a4f164736f6c63430008090033",
  "linkReferences": {},
  "deployedLinkReferences": {}
}